:100000000C9434000C9451000C9451000C94510049
:100010000C9451000C9451000C9451000C9451001C
:100020000C9451000C9451000C9451000C9451000C
:100030000C9451000C94D4000C9451000C94510079
:100040000C9451000C9451000C9451000C945100EC
:100050000C9451000C9451000C9451000C945100DC
:100060000C9451000C94510011241FBECFEFD8E026
:10007000DEBFCDBF11E0A0E0B1E0E0E9F9E002C0F1
:1000800005900D92A83CB107D9F722E0A8ECB1E0A9
:1000900001C01D92AB3CB207E1F70E94AD000C9489
:1000A000C6040C94000082E480937C0085E8809371
:1000B0007A00EFE6F0E0808181608083E1E8F0E0A3
:1000C00080818560808387EF92EC90938500809398
:1000D000840008951092C9021092C80224E0EAE751
:1000E000F0E0A8E7B0E0808180648083808186FDB5
:1000F000FDCF4D915C9111978091C8029091C902FA
:10010000840F951F9093C9028093C8023FEF80E748
:1001100092E0315080409040E1F700C00000215053
:1001200011F78091C8029091C9029695879596958E
:1001300087959093C9028093C80208959093C50053
:100140008093C400E1ECF0E0808188698083E2EC78
:10015000F0E080818660808308950E94530087E6E6
:1001600090E00E949E002FEF89E698E121508040A8
:100170009040E1F700C000007894FFCFCF93DF9369
:10018000FC012081222369F0DC011196E0ECF0E013
:10019000C6ECD0E0908195FFFDCF28832D912111F1
:1001A000F9CFDF91CF9108951F920F920FB60F9262
:1001B00011242F933F934F935F936F937F938F936C
:1001C0009F93AF93BF93EF93FF93CF93DF93CDB7FD
:1001D000DEB7CC57D109DEBFCDBF85E0ECE4F1E05E
:1001E000DE01119601900D928A95E1F78EE0E1E52E
:1001F000F1E0DE01169601900D928A95E1F781E219
:10020000EFE5F1E0DE01549601900D928A95E1F759
:100210008EE0E0E8F1E0DE01D59601900D928A953E
:10022000E1F789E2EEE8F1E0DE01AD5BBF4F01905E
:100230000D928A95E1F781E1E7EBF1E0DE01A45947
:10024000BF4F01900D928A95E1F72FEF33EC89E0D3
:10025000215030408040E1F700C00000CE010196FF
:100260000E94BE009FEF23E234EF915020403040C7
:10027000E1F700C00000CE0106960E94BE008FEF9D
:1002800093E224EF815090402040E1F700C000004D
:10029000CE0144960E94BE003FEF89E592E622E03F
:1002A0003150804090402040D9F700C00000CE017E
:1002B000C5960E94BE003AEA86EE96E921E03150EA
:1002C000804090402040D9F70000CE018D5B9F4FC9
:1002D0000E94BE003AEA86EE96E921E03150804065
:1002E00090402040D9F70000CE0184599F4F0E94D2
:1002F000BE003FEF83E294EF315080409040E1F741
:1003000000C0000098B180E2892788B90E946A0085
:100310008091C8029091C9029F938F9380E091E0F1
:100320009F938F9381E08F931F9288EC91E09F932E
:100330008F930E94CE0188EC91E00E94BE002AEAD1
:1003400036EE86E991E02150304080409040D9F768
:10035000000087EF92EC90938500809384000FB6A5
:10036000F894DEBF0FBECDBFC458DF4F0FB6F89470
:10037000DEBF0FBECDBFDF91CF91FF91EF91BF9157
:10038000AF919F918F917F916F915F914F913F912D
:100390002F910F900FBE0F901F901895AEE0B0E018
:1003A000E4EDF1E00C949D040D891E898F89988DF0
:1003B00026E02C831A83098397FF02C080E090E82F
:1003C00001979E838D83AE01455E5F4F698D7A8D67
:1003D000CE0101960E94FE014D815E8157FD0AC04B
:1003E0002F813885421753070CF49A01F801E20F68
:1003F000F31F10822E96E4E00C94B904ABE0B0E059
:10040000E4E0F2E00C948F046C017B018A01FC01B2
:1004100017821682838181FFCCC1CE0101963C01F7
:10042000F6019381F70193FD859193FF81917F01FF
:10043000882309F4BAC1853239F493FD859193FF7D
:1004400081917F01853229F4B60190E00E94F50385
:10045000E7CF912C212C312CFFE1F315D8F08B3212
:1004600079F038F4803279F08332A1F4232D2061C1
:100470001DC08D3261F0803369F4232D216016C0D8
:10048000832D8260382EE32DE4603E2E2AC0F32DAA
:10049000F8601DC037FC2DC020ED280F2A3040F039
:1004A0008E32B9F436FC81C1232D2064322E19C05E
:1004B00036FE06C08AE0989E200D1124922E11C0AF
:1004C000EAE02E9E200D1124222EF32DF0623F2E05
:1004D00008C08C3621F4832D8068382E02C08836FF
:1004E00041F4F70193FD859193FF81917F01811183
:1004F000B3CF982F9F7D9554933028F40C5F1F4FF6
:100500009FE399830DC0833631F0833771F08335D3
:1005100009F059C021C0F801808189830E5F1F4F07
:1005200088248394912C530113C02801F2E04F0ECC
:10053000511CF801A080B18036FE03C0692D70E027
:1005400002C06FEF7FEFC5010E94EA034C018201F8
:10055000F32DFF773F2E16C0280122E0420E511CDA
:10056000F801A080B18036FE03C0692D70E002C0A2
:100570006FEF7FEFC5010E94DF034C01F32DF068A0
:100580003F2E820133FC1BC0822D90E08816990615
:10059000B0F4B60180E290E00E94F5032A94F4CF13
:1005A000F50137FC859137FE81915F01B60190E03E
:1005B0000E94F50321102A9421E0821A91088114E7
:1005C000910471F7E8C0843611F0893641F5F801DD
:1005D00037FE07C060817181828193810C5F1F4F5C
:1005E00008C060817181072E000C880B990B0E5F8B
:1005F0001F4FF32DFF763F2E97FF09C090958095F2
:10060000709561957F4F8F4F9F4FF0683F2E2AE086
:1006100030E0A3010E943104882E861845C085373A
:1006200031F4232D2F7EB22E2AE030E025C0932D09
:10063000997FB92E8F36C1F018F4883579F0B5C09E
:10064000803719F0883721F0B0C0E92FE061BE2E65
:10065000B4FE0DC0FB2DF460BF2E09C034FE0AC0ED
:10066000292F2660B22E06C028E030E005C020E128
:1006700030E002C020E132E0F801B7FE07C060813F
:100680007181828193810C5F1F4F06C060817181EF
:1006900080E090E00E5F1F4FA3010E943104882E7E
:1006A0008618FB2DFF773F2E36FE0DC0232D2E7FA3
:1006B000A22E891458F434FE0BC032FC09C0832DDD
:1006C0008E7EA82E05C0B82CA32C03C0B82C01C068
:1006D000B92CA4FE0FC0FE01E80DF11D808180330E
:1006E00021F49A2D997EA92E09C0A2FE06C0B394CA
:1006F000B39404C08A2D867809F0B394A3FC11C08A
:10070000A0FE06C0B21488F4280C922C9B180EC0D0
:10071000B21460F4B60180E290E00E94F503B39455
:10072000F7CFB21418F42B1802C0982C212CA4FE79
:1007300010C0B60180E390E00E94F503A2FE17C04E
:10074000A1FC03C088E790E002C088E590E0B60114
:100750000CC08A2D867859F0A1FE02C08BE201C040
:1007600080E2A7FC8DE2B60190E00E94F5038914B7
:1007700038F4B60180E390E00E94F5039A94F7CF35
:100780008A94F301E80DF11D8081B60190E00E948A
:10079000F5038110F5CF222009F442CEB60180E2A4
:1007A00090E00E94F5032A94F6CFF60186819781A6
:1007B00002C08FEF9FEF2B96E2E10C94AB04FC019B
:1007C0000590615070400110D8F7809590958E0F7C
:1007D0009F1F0895FC016150704001900110D8F7EF
:1007E000809590958E0F9F1F08950F931F93CF9321
:1007F000DF93FB01238121FD03C08FEF9FEF2CC00E
:1008000022FF16C046815781248135814217530744
:1008100044F4A081B1819D012F5F3F4F318320833C
:100820008C93268137812F5F3F4F3783268314C0F7
:100830008B01EC01FB010084F185E02D0995892BEA
:10084000E1F6D80116968D919C911797019617960F
:100850009C938E931697CE01DF91CF911F910F91AC
:100860000895FA01AA27283051F1203181F1E89446
:100870006F936E7F6E5F7F4F8F4F9F4FAF4FB1E093
:100880003ED0B4E03CD0670F781F891F9A1FA11D8E
:10089000680F791F8A1F911DA11D6A0F711D811D8F
:1008A000911DA11D20D009F468943F912AE0269F54
:1008B00011243019305D3193DEF6CF010895462FB3
:1008C0004770405D4193B3E00FD0C9F7F6CF462F94
:1008D0004F70405D4A3318F0495D31FD40524193FD
:1008E00002D0A9F7EACFB4E0A695979587957795BA
:1008F0006795BA95C9F700976105710508959B0141
:10090000AC010A2E06945795479537952795BA95C9
:10091000C9F7620F731F841F951FA01D08952F92A2
:100920003F924F925F926F927F928F929F92AF927F
:10093000BF92CF92DF92EF92FF920F931F93CF93CC
:10094000DF93CDB7DEB7CA1BDB0B0FB6F894DEBF63
:100950000FBECDBF09942A88398848885F846E8489
:100960007D848C849B84AA84B984C884DF80EE80D3
:10097000FD800C811B81AA81B981CE0FD11D0FB6DC
:10098000F894DEBF0FBECDBFED010895F894FFCF00
:100990004745542068747470733A2F2F6170692E24
:1009A0007468696E67737065616B2E636F6D2F7508
:1009B00070646174653F6170695F6B65793D4B3848
:1009C000455A55303157554554583652494D26668B
:1009D00069656C64323D2533640D0A0041540D0A8B
:1009E0000041542B43574D4F44453D310D0A0041C2
:1009F000542B43574A41503D224D656472616E6FDE
:100A0000222C22627269616E30383038220D0A0061
:100A100041542B4349504D55583D300D0A00415427
:100A20002B43495053544152543D22544350222C9D
:100A3000223138342E3130362E3135332E3134399F
:100A4000222C38300D0A0041542B43495053454E57
:080A5000443D3130300D0A0075
:00000001FF
